:020000040800F2
:100000000080012081130008C1060008C306000813
:10001000C5060008C7060008C90600080000000061
:10002000000000000000000000000000CB060008F7
:10003000CD06000800000000D1130008CF0600081C
:10004000D1130008D1130008D1130008D113000800
:10005000D1130008D1130008D1130008D1130008F0
:10006000D1130008D1130008D1130008D1130008E0
:10007000D1130008D1130008D1130008D1130008D0
:10008000D1130008D1130008D1130008D1130008C0
:10009000D1130008D1130008D1130008D1130008B0
:1000A000D1130008D1130008D1130008D1130008A0
:1000B000D1130008D1130008D1130008D113000890
:1000C000D1130008D1130008D1130008D113000880
:1000D000D1130008D1130008D1130008D113000870
:1000E000D1060008D1130008D1130008D11300086D
:1000F000D1130008D1130008D1130008D113000850
:10010000D1130008D1130008D1130008D11300083F
:10011000D1130008D1130008ED060008D113000820
:10012000D1130008D1130008D1130008D11300081F
:10013000D1130008D1130008D1130008D11300080F
:10014000D1130008D1130008D1130008D1130008FF
:10015000D1130008D1130008D1130008D1130008EF
:10016000D1130008D1130008D1130008D1130008DF
:10017000D1130008D1130008D113000800000000BB
:08018000D1130008D11300089F
:1001880010B5054C237833B9044B13B10448AFF3C9
:1001980000800123237010BD08000020000000002B
:1001A8001C14000808B5034B1BB103490348AFF3FF
:1001B800008008BD000000000C0000201C1400088E
:1001C80000F00700C0F1070CBCF1040F28BF4FF086
:1001D800040C031D062B0CD9C31E4FF0FF3000FA88
:1001E8000CFC21EA0C019940984022EA00000843DF
:1001F80070470023F1E7000030B58FB000230B9360
:100208000C930D93059306930793089309930A9308
:1002180003F1804303F50433DA6C42F00402DA6434
:10022800DA6C02F004020492049ADA6C42F080025A
:10023800DA64DA6C02F080020392039ADA6C42F014
:100248000102DA64DA6C02F001020292029ADA6CB4
:1002580042F00202DA64DB6C03F002030193019BB3
:100268004FF0904320229A62334B5A6922F0F002F1
:10027800F02393FAA3F3002B57D0B3FA83F30221A8
:1002880001FA03F313432C4A53614FF400540B94BF
:1002980001238DF834308DF836100BA800F050FA91
:1002A800264BDB6894FAA4F4002C40D0B4FA84F40A
:1002B8006400032202FA04F423EA04044FF400530E
:1002C80093FAA3F21D4AD460126893FAA3F383B396
:1002D800B3FA83F35B00032101FA03F322EA030371
:1002E8004FF4005292FAA2F2144A136020230593A5
:1002F80001250695079100240894099405A94FF053
:10030800904000F0EBFA0E4BD86822462946C0F31D
:100318000220FFF755FF0001C0B20A4B83F82803FB
:100328004FF480725A600FB030BD2023A7E7202415
:10033800BEE72023CEE700BF0000014000080048C8
:1003480000ED00E000E100E030B591B00024099430
:100358000A940B940C940D940E940F9403940494A3
:1003680005940694079408941E4B9A6D42F4003243
:100378009A659A6D02F400320292029ADA6C42F09F
:100388000102DA64DB6C03F001030193019B0C2585
:1003980003950223049303230593072308930DEB86
:1003A80005014FF0904000F099FA4FF4E1330993BA
:1003B8000A940B940C940D950E940F940A4C09A969
:1003C800204600F025FD636823F490436360A3682A
:1003D80023F02A03A360236843F00103236011B0CC
:1003E80030BD00BF001002400044004010B586B088
:1003F8000023039304930593019302930093174AF0
:10040800D2F8903043F40043C2F890307F2304932D
:10041800FF230593124C03A9204600F045FB08234F
:100428008DF808308DF809308DF80A3001AA0121BD
:10043800204600F0A1FB06238DF8003004238DF838
:10044800013003238DF8023021238DF803306A46EA
:100458000121204600F006FC06B010BD0010024045
:100468000028004010B586B000240194029403943B
:10047800049405941B4B9A6D42F010029A659B6D8B
:1004880003F010030093009B174BD86822462146BF
:10049800C0F30220FFF794FE0001C0B2134B83F8AB
:1004A80036034FF480025A604F23ADF804300294AB
:1004B8004FF6FF7303930E4C01A9204600F044FC4D
:1004C800236823F080032360236843F00803236034
:1004D800636823F070036360A36823F08003A3605C
:1004E80006B010BD0010024000ED00E000E100E0A1
:1004F8000010004038B54C4A136823F0070343F056
:1005080004031360484B1B6803F00703042BF9D15D
:10051800464A136823F4C06343F400731360444BE2
:100528001A6842F480221A601A6842F480321A600B
:100538003F4B1B6813F4003FFAD03C4A136843F45E
:10054800807313603A4BD3F8902022F01802C3F856
:100558009020D3F8902042F00102C3F89020344B49
:10056800D3F8903013F0020FF9D0314BD3F8903014
:1005780003F44073B3F5807F14D02D4BD3F890204B
:1005880042F48032C3F89020D3F8902022F48032CD
:10059800C3F89020D3F8902022F4407242F480727D
:1005A800C3F89020224BD3F8902042F40042C3F8BD
:1005B8009020D9681F4A0A4042F4A05242F0030230
:1005C800DA60DA6842F08072DA601A6842F08072A3
:1005D8001A60174B1B6813F0007FFAD0144A93680F
:1005E80043F003039360124B9B6803F00C030C2B3E
:1005F800F9D10F4CA36823F0F003A360A36823F498
:10060800E063A360A36823F46053A3600A4D2846FF
:1006180000F06AF8284600F08DF8D4F8883023F006
:100628000C03C4F8883038BD002002400070004038
:10063800001002408C80FFF900B4C40400B583B0F8
:100648001A4B1A6E42F001021A661A6E02F0010283
:100658000192019A9A6D42F080529A659B6D03F05F
:1006680080530093009B1249CA6822F4E062120486
:10067800120C104B1343CB60FFF73CFFFFF7BCFD98
:10068800FFF762FEFFF7B2FEFFF7ECFE642000F012
:100698003BF84FF090414B691A0402F40012DB4317
:1006A80003F0200313438B61F0E700BF0010024002
:1006B80000ED00E00003FA05FEE7FEE7FEE7FEE7CF
:1006C800FEE7704770477047054B5B6913F4005F9E
:1006D80000D17047024B4FF400525A61F9E700BF4E
:1006E8000004014070470000064BA3FB00239B0950
:1006F800013B4FF0E022536100239361052313610E
:10070800704700BFD34D621082B04FF0E0231B69E1
:100718000193019BB0F1FF3F00D0013038B14FF099
:10072800E0231B6913F4803FF8D00138F6E702B0E4
:1007380070470000014B1860704700BF00000020A0
:100748000346027A002A00F0B08010B4006800283E
:100758003FD05A7A012A1DD0022A26D062B1012040
:100768009A7A002A35D0022A3FD0032A48D0012A93
:1007780025D040F002002CE002F1804202F58232DE
:10078800516821EA0000506019681068014311603F
:100798000020E5E7504A116821EA00001060196856
:1007A8005068014351600020DAE74B4A116808435A
:1007B800106019685068014351600020D0E71C6838
:1007C800454AD16821EA0401D16019689468214337
:1007D80091605A68002A32D0597A012932D0022908
:1007E8003AD0B9B140F0040020E01C683A4A916858
:1007F80021EA040191601968D4682143D160E8E7CF
:100808001968354A9468214391601968D46821436E
:10081800D160DEE701F1804101F582314C6A24EABA
:1008280002024A625A680C6A22430A629A7A32B110
:10083800022A25D0032A2ED0012A16D001205DF8DD
:10084800044B704724490C6A24EA02020A625A6877
:100858004C6A22434A62E9E71F490C6A22430A624A
:100868005A684C6A22434A62E0E75C681A4AD16ACD
:1008780021EA0401D1625B68916A0B439362DEE767
:100888005C68154A916A21EA040191625B68D16A41
:100898000B43D362D3E759680F4A946A21439162A4
:1008A8005B68D16A0B43D362C9E700680A4A1168DA
:1008B80021EA000111601868516821EA00015160BD
:1008C8005868116A21EA000111625968536A23EADB
:1008D800010353620020704700040140F0B40A6825
:1008E80092FAA2F212B1B2FA82F24EE020224CE061
:1008F8008E68856893FAA3F4E4B1B4FA84F46400CA
:100908004FF0030C0CFA04F425EA040593FAA3F457
:1009180094B1B4FA84F4640006FA04F42C438460B5
:100928000D68CE68446824EA050406FB05F52C43E7
:10093800446039E02024E2E72024ECE720243BE06F
:10094800202446E0202456E02024A40006FA04F4DB
:100958002C4304624E68056893FAA3F4002C75D002
:10096800B4FA84F464004FF0030C0CFA04F425EA9A
:10097800040493FAA3F3002B6AD0B3FA83F35B0061
:1009880006FA03F32343036001320B6833FA02F4D7
:1009980060D04FF0010C0CFA02FC1CEA0303F3D000
:1009A8004C68013C012CA3D90E69C56893FAA3F4DD
:1009B800002CC3D0B4FA84F464004FF0030C0CFA92
:1009C80004F425EA040593FAA3F4002CB8D0B4FA89
:1009D80084F4640006FA04F42C43C4604C68022CC6
:1009E800B8D1FF2B14D84E69056A93FAA3F4002CEA
:1009F800A8D0B4FA84F4A4000F2707FA04F425EA6F
:100A0800040593FAA3F4002C9ED0B4FA84F49CE76E
:100A18004F69466A1C0A94FAA4F59DB1B5FA85F5A2
:100A2800AD004FF00F0C0CFA05F526EA050594FA0F
:100A3800A4F44CB1B4FA84F4A40007FA04F42C43E7
:100A4800446287E72025EBE72024F5E7202489E79F
:100A5800202394E70020F0BC704782B04FF47A73EB
:100A68000193C36813F0400F1BD101464FF0FF33C9
:100A7800C360C368C3F380130020019A92B18BB995
:100A88004FF0E0231B6913F4803F02D0019B013B28
:100A98000193CB68C3F38013019A002AEDD101209A
:100AA800EBE7002002B0704738B504460D46CA236C
:100AB800436253234362FFF7D0FF012818D02B6805
:100AC800A26822F040021343A360AA68236923F4B2
:100AD800FF4323F07F03134323616A68236923F4E8
:100AE800FE0343EA024323616FF08003E3600020C2
:100AF800FF23636238BD82B002464FF47A730193D4
:100B0800C36803F0800363F0A003C360C368C3F342
:100B180040130020019989B183B14FF0E0231B698C
:100B280013F4803F02D0019B013B0193D368C3F3C8
:100B3800401301990029EDD10120EBE7C8B94FF422
:100B48007A730193D368C3F34013019989B183B9C8
:100B58004FF0E0231B6913F4803F02D0019B013B57
:100B68000193D368C3F3401301990029EDD1012003
:100B7800EBE702B07047000070B5044615460E4614
:100B880059BB836813F0400F01D100231360CA23B7
:100B98006362532363622046FFF75FFF012819D081
:100BA80016B32A6828796979AB7942EA004242EAA1
:100BB80001221343226822F07F1222F4FE421343DB
:100BC8002360264B6FF08002DA60A36813F0200FD1
:100BD80040D00020FF23636270BD836813F0400F8C
:100BE800D5D100231360D2E72E682B791C4AA2FBCB
:100BF8000301C9080801C0B201EB8101A3EB41015F
:100C08000843C0B26B79A2FB031C4FEADC0C4FEA25
:100C18000C11C9B20CEB8C0CA3EB4C0C41EA0C0187
:100C2800C9B2AD79A2FB0532D2081301DBB202EBDF
:100C38008202A5EB42021343DBB246EA004040EAD7
:100C480001210B43226822F07F1222F4FE42134353
:100C58002360B6E72046FFF74EFFBBE700280040B9
:100C6800CDCCCCCC70B5044615460E4639B9537870
:100C780013F0100F03D003F0EF030A335370CA23A5
:100C88006362532363622046FFF7E7FE012818D00A
:100C9800D6B12878AA786978EB781B0443EA403300
:100CA80043EA012313436168244A0A4013436360FB
:100CB800234B6FF08002DA60A36813F0200F38D05E
:100CC8000020FF23636270BD95F800C0A8781D4915
:100CD800A1FB0023DB081A01D2B203EB8303A0EBCC
:100CE80043031A43D2B26B78A1FB030E4FEADE0E20
:100CF8004FEA0E10C0B20EEB8E0EA3EB4E03034369
:100D0800D8B2ED78A1FB0531C9080B01DBB201EBC4
:100D18008101A5EB41010B43DBB21B0443EA4C33D1
:100D280043EA00231A436168044B0B401A4362608C
:100D3800BEE72046FFF7DFFEC3E700BFC00000FFA5
:100D480000280040CDCCCCCC0368304A904212D069
:100D5800B0F1804F0FD0A2F5943290420BD002F53B
:100D68008062904207D002F58062904203D002F57B
:100D78009432904203D123F070034A681343234A04
:100D880090421ED0B0F1804F1BD0A2F59432904211
:100D980017D002F58062904213D002F5806290422B
:100DA8000FD002F5943290420BD002F54062904287
:100DB80007D002F58062904203D002F5806290422B
:100DC80003D123F44073CA68134303608B68C3627A
:100DD8000B8883620D4B98420FD003F5006398424D
:100DE8000BD003F54063984207D003F5806398421F
:100DF80003D003F58063984201D10B69036343690B
:100E080043F0010343610020704700BF002C0140FC
:100E180038B5036813F0010F5CD104460D4603682A
:100E28002E4A1A404B68C9680B4329690B43A969C4
:100E38000B4313430360AB68426822F440521343E8
:100E480043606B69826822F4407213438360244BC9
:100E580098420DD0234B984212D0234B984213D07E
:100E6800224B984214D0224B984215D0012032E0F0
:100E7800032000F055F978B32B6893B901202AE0D4
:100E88000C2000F04DF9F6E7302000F049F9F2E7C0
:100E9800C02000F0DFF9EEE74FF4407000F0DAF917
:100EA800E9E7AA69B2F5004F07D000EB5300B0FBA1
:100EB800F3F39BB2E36000200DE05A0802EB400018
:100EC800B0FBF3F34FF6F0721A40C3F34203134337
:100ED800E360F0E7012038BD0120FCE7F369FFEF8C
:100EE800003801400044004000480040004C0040E9
:100EF80000500040034B9B68C3F30313024AD35CC2
:100F0800D84070470010024038140008034B9B6813
:100F1800C3F30223024AD35CD84070470010024052
:100F280048140008034B9B68C3F3C223024AD35CEE
:100F3800D840704700100240481400083A4BDB685C
:100F480003F00303022B57D0032B57D0012B12D0E9
:100F5800354B1B6813F0080337D1334A126812F077
:100F6800080F41D1304BD3F89430C3F303232F4AF1
:100F780052F8230043E02C4B1B6813F008030ED0F3
:100F8800294B1B6813F0080F1AD1274BD3F894305C
:100F98001B0903F0F003254A52F823002FE0224AE8
:100FA800126812F0080F08D11F4BD3F89430C3F31E
:100FB80003231E4A52F8230021E01B4A1268F8E76F
:100FC800194B1B68C3F30313E5E7174B1B6813F0B2
:100FD800080F0CD1144BD3F894301B0903F0F0031D
:100FE800124A52F823000AE00F4A1268BFE70E4B74
:100FF8001B68C3F30313F3E70D4800E00D480A4AE2
:10100800D368C3F302130133B0FBF3F0D368C3F31F
:10101800062303FB00F0D368C3F3416301335B008D
:10102800B0FBF3F0704700BF0010024050140008F6
:101038000024F40000127A0008B5354B9B6803F0D1
:101048000C030C2B37D8DFE803F0093636360736A1
:1010580036366036363633002E482BE02C4B1B686C
:1010680013F008030ED02A4B1B6813F0080F1AD18F
:10107800274BD3F894301B0903F0F003264A52F8A3
:10108800230017E0224A126812F0080F08D1204BFB
:10109800D3F89430C3F303231F4A52F8230009E01E
:1010A8001B4A1268F8E71A4B1B68C3F30313E5E7FA
:1010B800FFF744FF08BD164B1B6813F008030DD15A
:1010C800134A126812F0080F17D1114BD3F8943055
:1010D800C3F30323104A52F82300EBE70C4B1B68B9
:1010E80013F0080F0CD10A4BD3F894301B0903F006
:1010F800F003094A52F82300DCE7054A1268E9E7D9
:10110800034B1B68C3F30313F3E70448D2E700BF9C
:10111800001002400024F4005014000800127A0065
:1011280008B5032805D00C282BD0302856D000202D
:1011380008BD454BD3F88830034043EA0040A0F58A
:10114800403003287BD8DFE800F01502050CFFF7D4
:1011580073FFEDE73C4B186810F48060E8D03B481B
:10116800E6E7394BD3F8900010F00200E0D04FF4D6
:101178000040DDE7FFF760FFFFF7BCFEFFF7D2FE98
:10118800D6E7314BD3F88830034043EA0040A0F556
:1011980040200C2855D8DFE800F01A54545407545E
:1011A80054540A5454541100FFF746FFC0E7264B25
:1011B800186810F48060BBD02448B9E7224BD3F8F4
:1011C800900010F00200B3D04FF40040B0E7FFF7F2
:1011D80033FFFFF78FFEFFF799FEA9E71A4BD3F805
:1011E8008830034043EA0040194B984219D00AD886
:1011F800B0F5401F1CD0103B984202D1FFF71CFFEE
:1012080096E7002094E7B0F1301F08D10E4BD3F8D1
:10121800900010F002008BD04FF4004088E70020C7
:1012280086E7094B186810F4806081D007487FE78B
:10123800FFF702FFFFF75EFEFFF768FE78E7002082
:1012480076E7002074E700BF001002400024F40095
:101258002000300010B50446C02804D00020B4F5A2
:10126800407F31D010BD2F4BD3F88830034043EA7C
:1012780000432D4A934219D00AD8B3F5400F1CD029
:10128800403A934202D1FFF7D7FEE8E70020E6E7AD
:10129800B3F1C01F08D1234BD3F8900010F002001F
:1012A800DDD04FF40040DAE70020D8E71D4B18687E
:1012B80010F48060D3D01D48D1E7FFF7BDFEFFF7DB
:1012C80019FEFFF723FECAE7164BD3F888302340F0
:1012D80043EA0444164B9C4216D009D8B4F1407F27
:1012E80019D0A3F580739C42BCD1FFF7A5FEB9E7DE
:1012F800B4F1032FB6D10B4BD3F8903013F0020F93
:10130800B0D04FF40040ADE7064B1B6813F4806F74
:10131800A8D00648A6E7FFF78FFEFFF7EBFDFFF71B
:10132800F5FD9FE7001002408000C0000024F40093
:10133800000200030E4AD2F8883043F47003C2F862
:1013480088300C4B1A6842F001021A60002199603B
:101358001A6822F0A85222F410221A604FF4805220
:10136800DA601A6822F480221A609961704700BF17
:1013780000ED00E000100240DFF834D0FFF7DAFF9C
:10138800002103E00B4B5B58435004310A480B4BD8
:1013980042189A42F6D30A4A02E0002342F8043B74
:1013A800084B9A42F9D300F011F8FFF747F9FEE726
:1013B8000080012090140008000000200800002090
:1013C8000800002024000020FEE7000070B50D4D45
:1013D8000D4C641BA4100026A64209D10B4D0C4CE1
:1013E80000F018F8641BA4100026A64205D170BDB1
:1013F80055F8043B98470136EEE755F8043B984703
:101408000136F2E7801400088014000880140008F0
:1014180084140008F8B500BFF8BC08BC9E467047A5
:10142800F8B500BFF8BC08BC9E4670470000000035
:10143800000000000000000001020304060708097C
:101448000000000001020304A0860100400D030013
:10145800801A060000350C0040420F0080841E00F0
:1014680000093D0000127A000024F40000366E01E5
:081478000048E801006CDC02F1
:08148000AD01000800000000AE
:081488008901000800000000CA
:0814900000093D00000000000E
:04000005080013815B
:00000001FF
